{
  "_format": "hh-sol-artifact-1",
  "contractName": "PlethoriEscrow",
  "sourceName": "contracts/PlethoriEscrow.sol",
  "abi": [
    {
      "inputs": [
        {
          "internalType": "address",
          "name": "_oldToken",
          "type": "address"
        },
        {
          "internalType": "address",
          "name": "_newToken",
          "type": "address"
        }
      ],
      "stateMutability": "nonpayable",
      "type": "constructor"
    },
    {
      "anonymous": false,
      "inputs": [
        {
          "indexed": false,
          "internalType": "uint256",
          "name": "amount",
          "type": "uint256"
        }
      ],
      "name": "Claim",
      "type": "event"
    },
    {
      "anonymous": false,
      "inputs": [
        {
          "indexed": false,
          "internalType": "uint256",
          "name": "amount",
          "type": "uint256"
        }
      ],
      "name": "Enter",
      "type": "event"
    },
    {
      "inputs": [],
      "name": "addWhitelistedUser",
      "outputs": [],
      "stateMutability": "nonpayable",
      "type": "function"
    },
    {
      "inputs": [
        {
          "internalType": "address",
          "name": "",
          "type": "address"
        }
      ],
      "name": "balances",
      "outputs": [
        {
          "internalType": "uint256",
          "name": "",
          "type": "uint256"
        }
      ],
      "stateMutability": "view",
      "type": "function"
    },
    {
      "inputs": [
        {
          "internalType": "uint256",
          "name": "amount",
          "type": "uint256"
        }
      ],
      "name": "claim",
      "outputs": [],
      "stateMutability": "nonpayable",
      "type": "function"
    },
    {
      "inputs": [
        {
          "internalType": "uint256",
          "name": "amount",
          "type": "uint256"
        }
      ],
      "name": "enter",
      "outputs": [],
      "stateMutability": "nonpayable",
      "type": "function"
    },
    {
      "inputs": [],
      "name": "newToken",
      "outputs": [
        {
          "internalType": "address",
          "name": "",
          "type": "address"
        }
      ],
      "stateMutability": "view",
      "type": "function"
    },
    {
      "inputs": [],
      "name": "oldToken",
      "outputs": [
        {
          "internalType": "address",
          "name": "",
          "type": "address"
        }
      ],
      "stateMutability": "view",
      "type": "function"
    }
  ],
  "bytecode": "0x608060405234801561001057600080fd5b506040516107fc3803806107fc83398101604081905261002f9161010a565b81816001600160a01b03821615158061005057506001600160a01b03811615155b6100ab5760405162461bcd60e51b815260206004820152602260248201527f54686520746f6b656e20616464726573732063616e206e6f74206265207a6572604482015261379760f11b606482015260840160405180910390fd5b5050600080546001600160a01b039384166001600160a01b031991821617909155600180549290931691811691909117909155600280549091163317905561013d565b80516001600160a01b038116811461010557600080fd5b919050565b6000806040838503121561011d57600080fd5b610126836100ee565b9150610134602084016100ee565b90509250929050565b6106b08061014c6000396000f3fe608060405234801561001057600080fd5b50600436106100625760003560e01c806327e235e314610067578063379607f51461009a578063807b48ca146100af578063a59f3e0c146100b7578063b31c710a146100ca578063c42bd05a146100f5575b600080fd5b6100876100753660046105b1565b60036020526000908152604090205481565b6040519081526020015b60405180910390f35b6100ad6100a8366004610603565b610108565b005b6100ad6102f0565b6100ad6100c5366004610603565b610345565b6000546100dd906001600160a01b031681565b6040516001600160a01b039091168152602001610091565b6001546100dd906001600160a01b031681565b6000811161015d5760405162461bcd60e51b815260206004820152601a60248201527f54686520616d6f756e742063616e206e6f74206265207a65726f00000000000060448201526064015b60405180910390fd5b336000908152600360205260409020548111156101bc5760405162461bcd60e51b815260206004820152601960248201527f496e73756666696369656e7420746f6b656e20616d6f756e74000000000000006044820152606401610154565b60015460405163a9059cbb60e01b8152336004820152602481018390526001600160a01b039091169063a9059cbb90604401602060405180830381600087803b15801561020857600080fd5b505af115801561021c573d6000803e3d6000fd5b505050506040513d601f19601f8201168201806040525081019061024091906105e1565b61028c5760405162461bcd60e51b815260206004820152601a60248201527f436f756c64206e6f74207472616e7366657220616d6f756e742e0000000000006044820152606401610154565b336000908152600360205260409020546102a790829061064d565b3360009081526003602090815260409182902092909255518281527f7bb2b3c10797baccb6f8c4791f1edd6ca2f0d028ee0eda64b01a9a57e3a653f7910160405180910390a150565b6002546001600160a01b031633146103435760405162461bcd60e51b81526020600482015260166024820152752a34329037bbb732b91034b9903737ba1030b236b4b760511b6044820152606401610154565b565b600081116103955760405162461bcd60e51b815260206004820152601a60248201527f54686520616d6f756e742063616e206e6f74206265207a65726f0000000000006044820152606401610154565b60006103a03361052d565b9050808211156103f25760405162461bcd60e51b815260206004820152601a60248201527f496e73756666696369656e7420746f6b656e20616d6f756e742e0000000000006044820152606401610154565b6000546040516323b872dd60e01b8152336004820152306024820152604481018490526001600160a01b03909116906323b872dd90606401602060405180830381600087803b15801561044457600080fd5b505af1158015610458573d6000803e3d6000fd5b505050506040513d601f19601f8201168201806040525081019061047c91906105e1565b6104c85760405162461bcd60e51b815260206004820152601c60248201527f496e73756666696369656e7420746f6b656e20616c6c6f77616e6365000000006044820152606401610154565b336000908152600360205260409020546104e3908390610635565b3360009081526003602090815260409182902092909255518381527f49df34c0b2395b24ec334cd10ea018de01752d8723a4a3b042c01af6c99ba479910160405180910390a15050565b600080546040516370a0823160e01b81526001600160a01b038481166004830152909116906370a082319060240160206040518083038186803b15801561057357600080fd5b505afa158015610587573d6000803e3d6000fd5b505050506040513d601f19601f820116820180604052508101906105ab919061061c565b92915050565b6000602082840312156105c357600080fd5b81356001600160a01b03811681146105da57600080fd5b9392505050565b6000602082840312156105f357600080fd5b815180151581146105da57600080fd5b60006020828403121561061557600080fd5b5035919050565b60006020828403121561062e57600080fd5b5051919050565b6000821982111561064857610648610664565b500190565b60008282101561065f5761065f610664565b500390565b634e487b7160e01b600052601160045260246000fdfea2646970667358221220efc56c4fe3ecb86acec76b4f00c80c1ff2336859068cdaaf397e907a0096838364736f6c63430008060033",
  "linkReferences": {},
  "deployedLinkReferences": {}
}